{
  "contractName": "ERC721",
  "abi": [
    {
      "inputs": [],
      "stateMutability": "nonpayable",
      "type": "constructor"
    },
    {
      "anonymous": false,
      "inputs": [
        {
          "indexed": true,
          "internalType": "address",
          "name": "_owner",
          "type": "address"
        },
        {
          "indexed": true,
          "internalType": "address",
          "name": "_approved",
          "type": "address"
        },
        {
          "indexed": true,
          "internalType": "uint256",
          "name": "_tokenId",
          "type": "uint256"
        }
      ],
      "name": "Approval",
      "type": "event"
    },
    {
      "anonymous": false,
      "inputs": [
        {
          "indexed": true,
          "internalType": "address",
          "name": "_from",
          "type": "address"
        },
        {
          "indexed": true,
          "internalType": "address",
          "name": "_to",
          "type": "address"
        },
        {
          "indexed": true,
          "internalType": "uint256",
          "name": "_tokenId",
          "type": "uint256"
        }
      ],
      "name": "Transfer",
      "type": "event"
    },
    {
      "inputs": [
        {
          "internalType": "bytes4",
          "name": "interfaceID",
          "type": "bytes4"
        }
      ],
      "name": "supportsInterface",
      "outputs": [
        {
          "internalType": "bool",
          "name": "",
          "type": "bool"
        }
      ],
      "stateMutability": "view",
      "type": "function"
    },
    {
      "inputs": [
        {
          "internalType": "address",
          "name": "_owner",
          "type": "address"
        }
      ],
      "name": "balanceOf",
      "outputs": [
        {
          "internalType": "uint256",
          "name": "",
          "type": "uint256"
        }
      ],
      "stateMutability": "view",
      "type": "function"
    },
    {
      "inputs": [
        {
          "internalType": "uint256",
          "name": "_tokenId",
          "type": "uint256"
        }
      ],
      "name": "ownerOf",
      "outputs": [
        {
          "internalType": "address",
          "name": "",
          "type": "address"
        }
      ],
      "stateMutability": "view",
      "type": "function"
    },
    {
      "inputs": [
        {
          "internalType": "address",
          "name": "_from",
          "type": "address"
        },
        {
          "internalType": "address",
          "name": "_to",
          "type": "address"
        },
        {
          "internalType": "uint256",
          "name": "_tokenId",
          "type": "uint256"
        }
      ],
      "name": "transferFrom",
      "outputs": [],
      "stateMutability": "nonpayable",
      "type": "function"
    },
    {
      "inputs": [
        {
          "internalType": "address",
          "name": "_to",
          "type": "address"
        },
        {
          "internalType": "uint256",
          "name": "_tokenId",
          "type": "uint256"
        }
      ],
      "name": "approve",
      "outputs": [],
      "stateMutability": "nonpayable",
      "type": "function"
    }
  ],
  "bytecode": "0x608060405234801561001057600080fd5b5061003a7f01ffc9a7a5cef8baa21ed3c5c0d7e23accb804b619e9333b597f47a0d84076e2610068565b6100637f92d8a794d910422f7549620ed7a8f75c2c42d18032da05c61ed89586344e965e610068565b6100f7565b6001600160e01b0319808216141561009b5760405162461bcd60e51b8152600401610092906100c0565b60405180910390fd5b6001600160e01b0319166000908152602081905260409020805460ff19166001179055565b6020808252601b908201527f496e76616c696420696e74657266616365207265717565737465640000000000604082015260600190565b61079b806101066000396000f3fe608060405234801561001057600080fd5b50600436106100575760003560e01c806301ffc9a71461005c578063095ea7b31461008557806323b872dd1461009a5780636352211e146100ad57806370a08231146100cd575b600080fd5b61006f61006a3660046104e3565b6100ed565b60405161007c9190610537565b60405180910390f35b6100986100933660046104ba565b610110565b005b6100986100a836600461047f565b6101dc565b6100c06100bb36600461050b565b6101ff565b60405161007c9190610523565b6100e06100db366004610465565b61023a565b60405161007c9190610717565b6001600160e01b0319811660009081526020819052604090205460ff165b919050565b600061011b826101ff565b9050806001600160a01b0316836001600160a01b031614156101585760405162461bcd60e51b815260040161014f90610542565b60405180910390fd5b336001600160a01b038216146101805760405162461bcd60e51b815260040161014f906105c5565b60008281526003602052604080822080546001600160a01b0319166001600160a01b0387811691821790925591518593918516917f8c5be1e5ebec7d5bd14f71427d1e84f3dd0314c0f7b2291e5b200ac8c7c3b92591a4505050565b6101e63382610283565b6101ef57600080fd5b6101fa8383836102cc565b505050565b6000818152600160205260408120546001600160a01b0316806102345760405162461bcd60e51b815260040161014f90610583565b92915050565b60006001600160a01b0382166102625760405162461bcd60e51b815260040161014f90610583565b6001600160a01b0382166000908152600260205260409020610234906103c9565b600061028e826103cd565b6102aa5760405162461bcd60e51b815260040161014f906106e9565b60006102b5836101ff565b6001600160a01b0385811691161491505092915050565b6001600160a01b0382166102f25760405162461bcd60e51b815260040161014f9061066e565b826001600160a01b0316610305826101ff565b6001600160a01b03161461032b5760405162461bcd60e51b815260040161014f90610611565b6001600160a01b038316600090815260026020526040902061034c906103ea565b6001600160a01b038216600090815260026020526040902061036d906103fb565b60008181526001602052604080822080546001600160a01b0319166001600160a01b0386811691821790925591518493918716917fddf252ad1be2c89b69c2b068fc378daa952ba7f163c4a11628f55a4df523b3ef91a4505050565b5490565b6000908152600160205260409020546001600160a01b0316151590565b80546103f7906001610418565b9055565b60018160000160008282546104109190610720565b909155505050565b6000806104258385610738565b9050838311156104475760405162461bcd60e51b815260040161014f906106b2565b9392505050565b80356001600160a01b038116811461010b57600080fd5b600060208284031215610476578081fd5b6104478261044e565b600080600060608486031215610493578182fd5b61049c8461044e565b92506104aa6020850161044e565b9150604084013590509250925092565b600080604083850312156104cc578182fd5b6104d58361044e565b946020939093013593505050565b6000602082840312156104f4578081fd5b81356001600160e01b031981168114610447578182fd5b60006020828403121561051c578081fd5b5035919050565b6001600160a01b0391909116815260200190565b901515815260200190565b60208082526021908201527f4572726f72202d20617070726f76616c20746f2063757272656e74206f776e656040820152603960f91b606082015260800190565b60208082526022908201527f6f776e657220717565727920666f72206e6f6e2d6578697374656e7420746f6b60408201526132b760f11b606082015260800190565b6020808252602c908201527f43757272656e742063616c6c6572206973206e6f7420746865206f776e65722060408201526b37b3103a3432903a37b5b2b760a11b606082015260800190565b6020808252603b908201527f4552433732313a20547279696e6720746f207472616e73666572206120746f6b60408201527f656e20746865206164647265737320646f6573206e6f74206f776e0000000000606082015260800190565b60208082526024908201527f4552433732313a205472616e7366657220746f20746865207a65726f206164646040820152637265737360e01b606082015260800190565b6020808252601e908201527f536166654d6174683a205375627472616374696f6e204f766572666c6f770000604082015260600190565b6020808252601490820152731d1bdad95b88191bd95cc81b9bdd08195e1a5cdd60621b604082015260600190565b90815260200190565b600082198211156107335761073361074f565b500190565b60008282101561074a5761074a61074f565b500390565b634e487b7160e01b600052601160045260246000fdfea2646970667358221220db930bb7ad939cd75cda1befac5e0d64e918bdd8bd31ab774b49fc514b6a232a64736f6c63430008000033",
  "immutableReferences": {},
  "source": "// SPDX-License-Identifier: MIT\r\npragma solidity ^0.8.0;\r\n\r\nimport \"./ERC165.sol\";\r\nimport \"./interfaces/IERC721.sol\";\r\nimport \"./libraries/Counters.sol\";\r\n\r\n/*\r\n  building out the minting function:\r\n    a. nft to piont to an address\r\n    b. keep track of the token ids\r\n    c. keep track of token owners addresses to token ids\r\n    d. keep track of how many tokens an owner address has\r\n    e. create an event that emits a transfer log - contract address, where it is being minted to, the id\r\n*/\r\n\r\ncontract ERC721 is ERC165, IERC721 {\r\n  using SafeMath for uint256;\r\n  using Counters for Counters.Counter;\r\n\r\n  // mapping in solidity creates a hash table of key pair values\r\n\r\n  // Mapping from token id to the owner\r\n  mapping(uint256 => address) private _tokenOwner;\r\n\r\n  // Mapping from owner to number of owned tokens\r\n  mapping(address => Counters.Counter) private _ownedTokensCount;\r\n\r\n  // Mapping from token id to approves addresses\r\n  mapping(uint256 => address) private _tokenApprovals;\r\n\r\n  constructor() {\r\n    _registerInterface(bytes4(\r\n      keccak256('balanceOf(bytes4)')^\r\n      keccak256('ownerOf(bytes4)')^\r\n      keccak256('transferFrom(bytes4)')\r\n    ));\r\n  }\r\n\r\n  // We'll find the current balanceOf\r\n  /// @notice Count all NFTs assigned to an owner\r\n  /// @dev NFTs assigned to the zero address are considered invalid\r\n  /// function throws for queries about the zero address.\r\n  /// @param _owner An Address for whom to query the balance\r\n  /// @return The number of NFTs owned by '_owner', possibly zero\r\n  function balanceOf(address _owner) public override view returns(uint256) {\r\n    require(_owner != address(0), 'owner query for non-existent token');\r\n    return _ownedTokensCount[_owner].current();\r\n  }\r\n\r\n  /// @notice Find the owner of an NFT\r\n  /// @dev NFTs assigned to the zero address are considered invalid, and queries about them do throw\r\n  /// @param _tokenId The identifier for an NFT\r\n  /// @return The address of the owner of the NFT\r\n  function ownerOf(uint256 _tokenId) public override view returns(address) {\r\n    address owner = _tokenOwner[_tokenId];\r\n    require(owner != address(0), 'owner query for non-existent token');\r\n    return owner;\r\n  }\r\n\r\n  function _exists(uint256 _tokenId) internal view returns(bool) {\r\n    // setting the address of nft owner to check the mapping of the address from tokenOwner at the tokenId\r\n    address owner = _tokenOwner[_tokenId];\r\n    // return the truthiness that the address is not zero\r\n    return owner != address(0);\r\n  }\r\n\r\n  function _mint(address _to, uint256 _tokenId) internal virtual {\r\n    // requires that the address isn't zero\r\n    require(_to != address(0), 'ERC721: minting to the zero address');\r\n    // requires that the token does not already exist\r\n    require(!_exists(_tokenId), 'ERC721: token already minted');\r\n    // we are adding a new address with a token id for minting\r\n    _tokenOwner[_tokenId] = _to;\r\n    // keeping track of each address that is minting and adding one to the count\r\n    _ownedTokensCount[_to].increment();\r\n\r\n    emit Transfer(address(0), _to, _tokenId);\r\n  }\r\n\r\n  /// @notice Transfer ownership of an NFT\r\n  /// @dev Throws unless 'msg.sender' is the current owner, an authorized operator, or the approved address for this NFT.\r\n  /// Throws if '_from' is not the current owner. Throws if '_to' is the zero address. Throws if '_tokenId' is not a valid NFT\r\n  /// @param _from The current owner of teh NFT\r\n  /// @param _to The new owner\r\n  /// @param _tokenId The NFT to transfer\r\n  function _transferFrom(address _from, address _to, uint256 _tokenId) internal {\r\n    require(_to != address(0), 'ERC721: Transfer to the zero address');\r\n    require(ownerOf(_tokenId) == _from, 'ERC721: Trying to transfer a token the address does not own');\r\n    \r\n    _ownedTokensCount[_from].decrement();\r\n    _ownedTokensCount[_to].increment();\r\n\r\n    _tokenOwner[_tokenId] = _to;\r\n\r\n    emit Transfer(_from, _to, _tokenId);\r\n  }\r\n\r\n  function transferFrom(address _from, address _to, uint256 _tokenId) override public {\r\n    require(isApprovedOrOwner(msg.sender, _tokenId));\r\n    _transferFrom(_from, _to, _tokenId);\r\n  }\r\n\r\n  // require that the person approving is the owner\r\n  // approve an address to a token\r\n  // require that we can't approve sending tokens fo the owner to the owner (caller)\r\n  // update the map of the approval addresses\r\n  function approve(address _to, uint256 _tokenId) public {\r\n    address owner = ownerOf(_tokenId);\r\n    require(_to != owner, 'Error - approval to current owner');\r\n    require(msg.sender == owner, 'Current caller is not the owner of the token');\r\n    _tokenApprovals[_tokenId] = _to;\r\n\r\n    emit Approval(owner, _to, _tokenId);\r\n  }\r\n\r\n  function isApprovedOrOwner(address _spender, uint256 _tokenId) internal view returns(bool) {\r\n    require(_exists(_tokenId), 'token does not exist');\r\n    address owner = ownerOf(_tokenId);\r\n    return(_spender == owner);\r\n    // || getApproved(_tokenId) == _spender;\r\n  }\r\n\r\n}",
  "sourcePath": "C:\\Users\\Gregg\\OneDrive\\Projects\\Personal Projects\\NFT_Marketplace\\src\\contracts\\ERC721.sol",
  "compiler": {
    "name": "solc",
    "version": "0.8.0+commit.c7dfd78e.Emscripten.clang"
  },
  "schemaVersion": "3.4.4",
  "updatedAt": "2022-02-06T16:38:25.382Z",
  "devdoc": {
    "kind": "dev",
    "methods": {
      "balanceOf(address)": {
        "details": "NFTs assigned to the zero address are considered invalid function throws for queries about the zero address.",
        "params": {
          "_owner": "An Address for whom to query the balance"
        },
        "returns": {
          "_0": "The number of NFTs owned by '_owner', possibly zero"
        }
      },
      "ownerOf(uint256)": {
        "details": "NFTs assigned to the zero address are considered invalid, and queries about them do throw",
        "params": {
          "_tokenId": "The identifier for an NFT"
        },
        "returns": {
          "_0": "The address of the owner of the NFT"
        }
      },
      "supportsInterface(bytes4)": {
        "details": "Interface identification is specified in ERC-165. This function uses less than 30,000 gas",
        "params": {
          "interfaceID": "The interface identifier, as specified in ERC-165"
        },
        "returns": {
          "_0": "'true' if the contract implements 'interfaceID' and 'interfaceID is not 0xffffffff, 'false' otherwise"
        }
      }
    },
    "version": 1
  },
  "userdoc": {
    "kind": "user",
    "methods": {
      "balanceOf(address)": {
        "notice": "Count all NFTs assigned to an owner"
      },
      "ownerOf(uint256)": {
        "notice": "Find the owner of an NFT"
      },
      "supportsInterface(bytes4)": {
        "notice": "Query if a contract implements an interface"
      }
    },
    "version": 1
  }
}