{
  "contractName": "ERC721Metadata",
  "abi": [
    {
      "inputs": [
        {
          "internalType": "string",
          "name": "_named",
          "type": "string"
        },
        {
          "internalType": "string",
          "name": "_symbolified",
          "type": "string"
        }
      ],
      "stateMutability": "nonpayable",
      "type": "constructor"
    },
    {
      "inputs": [
        {
          "internalType": "bytes4",
          "name": "interfaceID",
          "type": "bytes4"
        }
      ],
      "name": "supportsInterface",
      "outputs": [
        {
          "internalType": "bool",
          "name": "",
          "type": "bool"
        }
      ],
      "stateMutability": "view",
      "type": "function"
    },
    {
      "inputs": [],
      "name": "name",
      "outputs": [
        {
          "internalType": "string",
          "name": "",
          "type": "string"
        }
      ],
      "stateMutability": "view",
      "type": "function"
    },
    {
      "inputs": [],
      "name": "symbol",
      "outputs": [
        {
          "internalType": "string",
          "name": "",
          "type": "string"
        }
      ],
      "stateMutability": "view",
      "type": "function"
    }
  ],
  "bytecode": "0x608060405234801561001057600080fd5b5060405161058238038061058283398101604081905261002f91610241565b6100587f01ffc9a7a5cef8baa21ed3c5c0d7e23accb804b619e9333b597f47a0d84076e26100b0565b6100817f6c5b7360b116f8fd1d2a1ccb905de5c6a9e91e31b88b8db3cd997e184f357e9f6100b0565b8151610094906001906020850190610108565b5080516100a8906002906020840190610108565b505050610329565b6001600160e01b031980821614156100e35760405162461bcd60e51b81526004016100da906102a1565b60405180910390fd5b6001600160e01b0319166000908152602081905260409020805460ff19166001179055565b828054610114906102d8565b90600052602060002090601f016020900481019282610136576000855561017c565b82601f1061014f57805160ff191683800117855561017c565b8280016001018555821561017c579182015b8281111561017c578251825591602001919060010190610161565b5061018892915061018c565b5090565b5b80821115610188576000815560010161018d565b600082601f8301126101b1578081fd5b81516001600160401b03808211156101cb576101cb610313565b6040516020601f8401601f19168201810183811183821017156101f0576101f0610313565b6040528382528584018101871015610206578485fd5b8492505b83831015610227578583018101518284018201529182019161020a565b8383111561023757848185840101525b5095945050505050565b60008060408385031215610253578182fd5b82516001600160401b0380821115610269578384fd5b610275868387016101a1565b9350602085015191508082111561028a578283fd5b50610297858286016101a1565b9150509250929050565b6020808252601b908201527f496e76616c696420696e74657266616365207265717565737465640000000000604082015260600190565b6002810460018216806102ec57607f821691505b6020821081141561030d57634e487b7160e01b600052602260045260246000fd5b50919050565b634e487b7160e01b600052604160045260246000fd5b61024a806103386000396000f3fe608060405234801561001057600080fd5b50600436106100415760003560e01c806301ffc9a71461004657806306fdde031461006f57806395d89b4114610084575b600080fd5b61005961005436600461014c565b61008c565b604051610066919061017b565b60405180910390f35b6100776100ab565b6040516100669190610186565b61007761013d565b6001600160e01b03191660009081526020819052604090205460ff1690565b6060600180546100ba906101d9565b80601f01602080910402602001604051908101604052809291908181526020018280546100e6906101d9565b80156101335780601f1061010857610100808354040283529160200191610133565b820191906000526020600020905b81548152906001019060200180831161011657829003601f168201915b5050505050905090565b6060600280546100ba906101d9565b60006020828403121561015d578081fd5b81356001600160e01b031981168114610174578182fd5b9392505050565b901515815260200190565b6000602080835283518082850152825b818110156101b257858101830151858201604001528201610196565b818111156101c35783604083870101525b50601f01601f1916929092016040019392505050565b6002810460018216806101ed57607f821691505b6020821081141561020e57634e487b7160e01b600052602260045260246000fd5b5091905056fea264697066735822122047d17379930755aaaf7b942be61f5c001dba8f0123acb78527409c39bf94b11064736f6c63430008000033",
  "immutableReferences": {},
  "source": "// SPDX-License-Identifier: MIT\r\npragma solidity ^0.8.0;\r\n\r\nimport './interfaces/IERC721Metadata.sol';\r\nimport './ERC165.sol';\r\n\r\ncontract ERC721Metadata is IERC721Metadata, ERC165 {\r\n  string private _name;\r\n  string private _symbol;\r\n\r\n  constructor(string memory _named, string memory _symbolified) {\r\n\r\n    _registerInterface(bytes4(\r\n      keccak256('name(bytes4)')^\r\n      keccak256('symbol(bytes4)')\r\n    ));\r\n\r\n    _name = _named;\r\n    _symbol = _symbolified;\r\n  }\r\n\r\n  function name() external view override returns(string memory) {\r\n    return _name;\r\n  }\r\n\r\n  function symbol() external view override returns(string memory) {\r\n    return _symbol;\r\n  }\r\n}",
  "sourcePath": "C:\\Users\\Gregg\\OneDrive\\Projects\\Personal Projects\\NFT_Marketplace\\src\\contracts\\ERC721Metadata.sol",
  "compiler": {
    "name": "solc",
    "version": "0.8.0+commit.c7dfd78e.Emscripten.clang"
  },
  "schemaVersion": "3.4.4",
  "updatedAt": "2022-02-06T16:38:25.393Z",
  "devdoc": {
    "kind": "dev",
    "methods": {
      "supportsInterface(bytes4)": {
        "details": "Interface identification is specified in ERC-165. This function uses less than 30,000 gas",
        "params": {
          "interfaceID": "The interface identifier, as specified in ERC-165"
        },
        "returns": {
          "_0": "'true' if the contract implements 'interfaceID' and 'interfaceID is not 0xffffffff, 'false' otherwise"
        }
      }
    },
    "version": 1
  },
  "userdoc": {
    "kind": "user",
    "methods": {
      "supportsInterface(bytes4)": {
        "notice": "Query if a contract implements an interface"
      }
    },
    "version": 1
  }
}