{
  "contractName": "KryptoBird",
  "abi": [
    {
      "inputs": [],
      "stateMutability": "nonpayable",
      "type": "constructor"
    },
    {
      "anonymous": false,
      "inputs": [
        {
          "indexed": true,
          "internalType": "address",
          "name": "_owner",
          "type": "address"
        },
        {
          "indexed": true,
          "internalType": "address",
          "name": "_approved",
          "type": "address"
        },
        {
          "indexed": true,
          "internalType": "uint256",
          "name": "_tokenId",
          "type": "uint256"
        }
      ],
      "name": "Approval",
      "type": "event"
    },
    {
      "anonymous": false,
      "inputs": [
        {
          "indexed": true,
          "internalType": "address",
          "name": "_from",
          "type": "address"
        },
        {
          "indexed": true,
          "internalType": "address",
          "name": "_to",
          "type": "address"
        },
        {
          "indexed": true,
          "internalType": "uint256",
          "name": "_tokenId",
          "type": "uint256"
        }
      ],
      "name": "Transfer",
      "type": "event"
    },
    {
      "inputs": [
        {
          "internalType": "address",
          "name": "_to",
          "type": "address"
        },
        {
          "internalType": "uint256",
          "name": "_tokenId",
          "type": "uint256"
        }
      ],
      "name": "approve",
      "outputs": [],
      "stateMutability": "nonpayable",
      "type": "function"
    },
    {
      "inputs": [
        {
          "internalType": "address",
          "name": "_owner",
          "type": "address"
        }
      ],
      "name": "balanceOf",
      "outputs": [
        {
          "internalType": "uint256",
          "name": "",
          "type": "uint256"
        }
      ],
      "stateMutability": "view",
      "type": "function",
      "constant": true
    },
    {
      "inputs": [
        {
          "internalType": "uint256",
          "name": "",
          "type": "uint256"
        }
      ],
      "name": "kryptoBirdz",
      "outputs": [
        {
          "internalType": "string",
          "name": "",
          "type": "string"
        }
      ],
      "stateMutability": "view",
      "type": "function",
      "constant": true
    },
    {
      "inputs": [],
      "name": "name",
      "outputs": [
        {
          "internalType": "string",
          "name": "",
          "type": "string"
        }
      ],
      "stateMutability": "view",
      "type": "function",
      "constant": true
    },
    {
      "inputs": [
        {
          "internalType": "uint256",
          "name": "_tokenId",
          "type": "uint256"
        }
      ],
      "name": "ownerOf",
      "outputs": [
        {
          "internalType": "address",
          "name": "",
          "type": "address"
        }
      ],
      "stateMutability": "view",
      "type": "function",
      "constant": true
    },
    {
      "inputs": [
        {
          "internalType": "bytes4",
          "name": "interfaceID",
          "type": "bytes4"
        }
      ],
      "name": "supportsInterface",
      "outputs": [
        {
          "internalType": "bool",
          "name": "",
          "type": "bool"
        }
      ],
      "stateMutability": "view",
      "type": "function",
      "constant": true
    },
    {
      "inputs": [],
      "name": "symbol",
      "outputs": [
        {
          "internalType": "string",
          "name": "",
          "type": "string"
        }
      ],
      "stateMutability": "view",
      "type": "function",
      "constant": true
    },
    {
      "inputs": [
        {
          "internalType": "uint256",
          "name": "_index",
          "type": "uint256"
        }
      ],
      "name": "tokenByIndex",
      "outputs": [
        {
          "internalType": "uint256",
          "name": "",
          "type": "uint256"
        }
      ],
      "stateMutability": "view",
      "type": "function",
      "constant": true
    },
    {
      "inputs": [
        {
          "internalType": "address",
          "name": "_owner",
          "type": "address"
        },
        {
          "internalType": "uint256",
          "name": "_index",
          "type": "uint256"
        }
      ],
      "name": "tokenOfOwnerByIndex",
      "outputs": [
        {
          "internalType": "uint256",
          "name": "",
          "type": "uint256"
        }
      ],
      "stateMutability": "view",
      "type": "function",
      "constant": true
    },
    {
      "inputs": [],
      "name": "totalSupply",
      "outputs": [
        {
          "internalType": "uint256",
          "name": "",
          "type": "uint256"
        }
      ],
      "stateMutability": "view",
      "type": "function",
      "constant": true
    },
    {
      "inputs": [
        {
          "internalType": "address",
          "name": "_from",
          "type": "address"
        },
        {
          "internalType": "address",
          "name": "_to",
          "type": "address"
        },
        {
          "internalType": "uint256",
          "name": "_tokenId",
          "type": "uint256"
        }
      ],
      "name": "transferFrom",
      "outputs": [],
      "stateMutability": "nonpayable",
      "type": "function"
    },
    {
      "inputs": [
        {
          "internalType": "string",
          "name": "_kryptoBird",
          "type": "string"
        }
      ],
      "name": "mint",
      "outputs": [],
      "stateMutability": "nonpayable",
      "type": "function"
    }
  ],
  "bytecode": "0x60806040523480156200001157600080fd5b506040518060400160405280600a81526020016912dc9e5c1d1bd09a5c9960b21b8152506040518060400160405280600681526020016525a124a9222d60d11b8152508181620000877f01ffc9a7a5cef8baa21ed3c5c0d7e23accb804b619e9333b597f47a0d84076e26200014060201b60201c565b620000b27f6c5b7360b116f8fd1d2a1ccb905de5c6a9e91e31b88b8db3cd997e184f357e9f62000140565b8151620000c79060019060208501906200019b565b508051620000dd9060029060208401906200019b565b506200010d91507f92d8a794d910422f7549620ed7a8f75c2c42d18032da05c61ed89586344e965e905062000140565b620001387f2aa3f4710f58b303977da296b62cadae054c8971d883298d8ed6c6c0565c13c162000140565b5050620002b5565b6001600160e01b03198082161415620001765760405162461bcd60e51b81526004016200016d9062000241565b60405180910390fd5b6001600160e01b0319166000908152602081905260409020805460ff19166001179055565b828054620001a99062000278565b90600052602060002090601f016020900481019282620001cd576000855562000218565b82601f10620001e857805160ff191683800117855562000218565b8280016001018555821562000218579182015b8281111562000218578251825591602001919060010190620001fb565b50620002269291506200022a565b5090565b5b808211156200022657600081556001016200022b565b6020808252601b908201527f496e76616c696420696e74657266616365207265717565737465640000000000604082015260600190565b6002810460018216806200028d57607f821691505b60208210811415620002af57634e487b7160e01b600052602260045260246000fd5b50919050565b61100080620002c56000396000f3fe608060405234801561001057600080fd5b50600436106100b45760003560e01c80634f6ccce7116100715780634f6ccce7146101475780636352211e1461015a57806370a082311461017a57806393ab6e561461018d57806395d89b41146101a0578063d85d3d27146101a8576100b4565b806301ffc9a7146100b957806306fdde03146100e2578063095ea7b3146100f757806318160ddd1461010c57806323b872dd146101215780632f745c5914610134575b600080fd5b6100cc6100c7366004610aae565b6101bb565b6040516100d99190610bbf565b60405180910390f35b6100ea6101de565b6040516100d99190610bca565b61010a610105366004610a85565b610270565b005b61011461033c565b6040516100d99190610efb565b61010a61012f366004610a4a565b610342565b610114610142366004610a85565b610365565b610114610155366004610b77565b6103d9565b61016d610168366004610b77565b610434565b6040516100d99190610bab565b610114610188366004610a30565b61046f565b6100ea61019b366004610b77565b6104b8565b6100ea610564565b61010a6101b6366004610ad6565b610573565b6001600160e01b0319811660009081526020819052604090205460ff165b919050565b6060600180546101ed90610f63565b80601f016020809104026020016040519081016040528092919081815260200182805461021990610f63565b80156102665780601f1061023b57610100808354040283529160200191610266565b820191906000526020600020905b81548152906001019060200180831161024957829003601f168201915b5050505050905090565b600061027b82610434565b9050806001600160a01b0316836001600160a01b031614156102b85760405162461bcd60e51b81526004016102af90610bfd565b60405180910390fd5b336001600160a01b038216146102e05760405162461bcd60e51b81526004016102af90610d66565b60008281526005602052604080822080546001600160a01b0319166001600160a01b0387811691821790925591518593918516917f8c5be1e5ebec7d5bd14f71427d1e84f3dd0314c0f7b2291e5b200ac8c7c3b92591a4505050565b60065490565b61034c338261064b565b61035557600080fd5b610360838383610694565b505050565b60006103708361046f565b821061038e5760405162461bcd60e51b81526004016102af90610cee565b6001600160a01b03831660009081526008602052604090208054839081106103c657634e487b7160e01b600052603260045260246000fd5b9060005260206000200154905092915050565b60006103e361033c565b82106104015760405162461bcd60e51b81526004016102af90610cb7565b6006828154811061042257634e487b7160e01b600052603260045260246000fd5b90600052602060002001549050919050565b6000818152600360205260408120546001600160a01b0316806104695760405162461bcd60e51b81526004016102af90610c3e565b92915050565b60006001600160a01b0382166104975760405162461bcd60e51b81526004016102af90610c3e565b6001600160a01b038216600090815260046020526040902061046990610791565b600a81815481106104c857600080fd5b9060005260206000200160009150905080546104e390610f63565b80601f016020809104026020016040519081016040528092919081815260200182805461050f90610f63565b801561055c5780601f106105315761010080835404028352916020019161055c565b820191906000526020600020905b81548152906001019060200180831161053f57829003601f168201915b505050505081565b6060600280546101ed90610f63565b600b816040516105839190610b8f565b9081526040519081900360200190205460ff16156105b35760405162461bcd60e51b81526004016102af90610d25565b600a805460018101825560009190915281516105f6917fc65a7bb8d6351c1cf70c95a316cc6a92839c986682d98bc35f958f4883f9d2a801906020840190610980565b50600a5460009061060990600190610f1c565b90506106153382610795565b6001600b836040516106279190610b8f565b908152604051908190036020019020805491151560ff199092169190911790555050565b6000610656826107b6565b6106725760405162461bcd60e51b81526004016102af90610ecd565b600061067d83610434565b6001600160a01b0385811691161491505092915050565b6001600160a01b0382166106ba5760405162461bcd60e51b81526004016102af90610e0f565b826001600160a01b03166106cd82610434565b6001600160a01b0316146106f35760405162461bcd60e51b81526004016102af90610db2565b6001600160a01b0383166000908152600460205260409020610714906107d3565b6001600160a01b0382166000908152600460205260409020610735906107e4565b60008181526003602052604080822080546001600160a01b0319166001600160a01b0386811691821790925591518493918716917fddf252ad1be2c89b69c2b068fc378daa952ba7f163c4a11628f55a4df523b3ef91a4505050565b5490565b61079f8282610801565b6107a8816108c8565b6107b2828261090c565b5050565b6000908152600360205260409020546001600160a01b0316151590565b80546107e090600161094a565b9055565b60018160000160008282546107f99190610f04565b909155505050565b6001600160a01b0382166108275760405162461bcd60e51b81526004016102af90610e8a565b610830816107b6565b1561084d5760405162461bcd60e51b81526004016102af90610c80565b600081815260036020908152604080832080546001600160a01b0319166001600160a01b03871690811790915583526004909152902061088c906107e4565b60405181906001600160a01b038416906000907fddf252ad1be2c89b69c2b068fc378daa952ba7f163c4a11628f55a4df523b3ef908290a45050565b600680546000838152600760205260408120829055600182018355919091527ff652222313e28459528d920b65115c16c04f3efc82aaedc97be59f3f377c0d3f0155565b6001600160a01b0390911660009081526008602081815260408084208054868652600984529185208290559282526001810183559183529091200155565b6000806109578385610f1c565b9050838311156109795760405162461bcd60e51b81526004016102af90610e53565b9392505050565b82805461098c90610f63565b90600052602060002090601f0160209004810192826109ae57600085556109f4565b82601f106109c757805160ff19168380011785556109f4565b828001600101855582156109f4579182015b828111156109f45782518255916020019190600101906109d9565b50610a00929150610a04565b5090565b5b80821115610a005760008155600101610a05565b80356001600160a01b03811681146101d957600080fd5b600060208284031215610a41578081fd5b61097982610a19565b600080600060608486031215610a5e578182fd5b610a6784610a19565b9250610a7560208501610a19565b9150604084013590509250925092565b60008060408385031215610a97578182fd5b610aa083610a19565b946020939093013593505050565b600060208284031215610abf578081fd5b81356001600160e01b031981168114610979578182fd5b60006020808385031215610ae8578182fd5b823567ffffffffffffffff80821115610aff578384fd5b818501915085601f830112610b12578384fd5b813581811115610b2457610b24610fb4565b604051601f8201601f1916810185018381118282101715610b4757610b47610fb4565b6040528181528382018501881015610b5d578586fd5b818585018683013790810190930193909352509392505050565b600060208284031215610b88578081fd5b5035919050565b60008251610ba1818460208701610f33565b9190910192915050565b6001600160a01b0391909116815260200190565b901515815260200190565b6000602082528251806020840152610be9816040850160208701610f33565b601f01601f19169190910160400192915050565b60208082526021908201527f4572726f72202d20617070726f76616c20746f2063757272656e74206f776e656040820152603960f91b606082015260800190565b60208082526022908201527f6f776e657220717565727920666f72206e6f6e2d6578697374656e7420746f6b60408201526132b760f11b606082015260800190565b6020808252601c908201527f4552433732313a20746f6b656e20616c7265616479206d696e74656400000000604082015260600190565b6020808252601e908201527f676c6f62616c20696e646578206973206f7574206f6620626f756e6473210000604082015260600190565b6020808252601d908201527f6f776e657220696e646578206973206f7574206f6620626f756e647321000000604082015260600190565b60208082526021908201527f4572726f72202d206b727970746f4269726420616c72656164792065786973746040820152607360f81b606082015260800190565b6020808252602c908201527f43757272656e742063616c6c6572206973206e6f7420746865206f776e65722060408201526b37b3103a3432903a37b5b2b760a11b606082015260800190565b6020808252603b908201527f4552433732313a20547279696e6720746f207472616e73666572206120746f6b60408201527f656e20746865206164647265737320646f6573206e6f74206f776e0000000000606082015260800190565b60208082526024908201527f4552433732313a205472616e7366657220746f20746865207a65726f206164646040820152637265737360e01b606082015260800190565b6020808252601e908201527f536166654d6174683a205375627472616374696f6e204f766572666c6f770000604082015260600190565b60208082526023908201527f4552433732313a206d696e74696e6720746f20746865207a65726f206164647260408201526265737360e81b606082015260800190565b6020808252601490820152731d1bdad95b88191bd95cc81b9bdd08195e1a5cdd60621b604082015260600190565b90815260200190565b60008219821115610f1757610f17610f9e565b500190565b600082821015610f2e57610f2e610f9e565b500390565b60005b83811015610f4e578181015183820152602001610f36565b83811115610f5d576000848401525b50505050565b600281046001821680610f7757607f821691505b60208210811415610f9857634e487b7160e01b600052602260045260246000fd5b50919050565b634e487b7160e01b600052601160045260246000fd5b634e487b7160e01b600052604160045260246000fdfea264697066735822122077eba090b6f84d57cb1d8df807ea2cde8a27e9548edb1047b08b4cd5732e909c64736f6c63430008000033",
  "immutableReferences": {},
  "source": "// SPDX-License-Identifier: MIT\r\npragma solidity ^0.8.0;\r\n\r\nimport './ERC721Connector.sol';\r\n\r\ncontract KryptoBird is ERC721Connector {\r\n  // Array to store out NFTs\r\n  string[] public kryptoBirdz;\r\n\r\n  mapping(string => bool) _kryptoBirdzExists;\r\n\r\n  constructor() ERC721Connector('KryptoBird', 'KBIRDZ') {\r\n\r\n  }\r\n\r\n  function mint(string memory _kryptoBird) public {\r\n    require(!_kryptoBirdzExists[_kryptoBird], 'Error - kryptoBird already exists');\r\n\r\n    // this is deprecated  - uint _id = KryptoBirdz.push(_kryptoBird);\r\n    // .push no longer returns the length but a red to the added element\r\n    kryptoBirdz.push(_kryptoBird);\r\n    uint _id = kryptoBirdz.length -1;\r\n\r\n    _mint(msg.sender, _id);\r\n    \r\n    _kryptoBirdzExists[_kryptoBird] = true;\r\n  }\r\n}",
  "sourcePath": "C:\\Users\\Gregg\\OneDrive\\Projects\\Personal Projects\\NFT_Marketplace\\src\\contracts\\KryptoBirdz.sol",
  "compiler": {
    "name": "solc",
    "version": "0.8.0+commit.c7dfd78e.Emscripten.clang"
  },
  "schemaVersion": "3.4.4",
  "updatedAt": "2022-02-06T16:38:30.203Z",
  "networkType": "ethereum",
  "devdoc": {
    "kind": "dev",
    "methods": {
      "balanceOf(address)": {
        "details": "NFTs assigned to the zero address are considered invalid function throws for queries about the zero address.",
        "params": {
          "_owner": "An Address for whom to query the balance"
        },
        "returns": {
          "_0": "The number of NFTs owned by '_owner', possibly zero"
        }
      },
      "ownerOf(uint256)": {
        "details": "NFTs assigned to the zero address are considered invalid, and queries about them do throw",
        "params": {
          "_tokenId": "The identifier for an NFT"
        },
        "returns": {
          "_0": "The address of the owner of the NFT"
        }
      },
      "supportsInterface(bytes4)": {
        "details": "Interface identification is specified in ERC-165. This function uses less than 30,000 gas",
        "params": {
          "interfaceID": "The interface identifier, as specified in ERC-165"
        },
        "returns": {
          "_0": "'true' if the contract implements 'interfaceID' and 'interfaceID is not 0xffffffff, 'false' otherwise"
        }
      }
    },
    "version": 1
  },
  "userdoc": {
    "kind": "user",
    "methods": {
      "balanceOf(address)": {
        "notice": "Count all NFTs assigned to an owner"
      },
      "ownerOf(uint256)": {
        "notice": "Find the owner of an NFT"
      },
      "supportsInterface(bytes4)": {
        "notice": "Query if a contract implements an interface"
      }
    },
    "version": 1
  }
}